{
  "_format": "hh-sol-artifact-1",
  "contractName": "Counter",
  "sourceName": "contracts/Counter.sol",
  "abi": [
    {
      "anonymous": false,
      "inputs": [
        {
          "indexed": false,
          "internalType": "uint256",
          "name": "newCount",
          "type": "uint256"
        }
      ],
      "name": "CounterDecremented",
      "type": "event"
    },
    {
      "anonymous": false,
      "inputs": [
        {
          "indexed": false,
          "internalType": "uint256",
          "name": "newCount",
          "type": "uint256"
        }
      ],
      "name": "CounterIncremented",
      "type": "event"
    },
    {
      "inputs": [],
      "name": "decrement",
      "outputs": [],
      "stateMutability": "nonpayable",
      "type": "function"
    },
    {
      "inputs": [],
      "name": "getCount",
      "outputs": [
        {
          "internalType": "uint256",
          "name": "",
          "type": "uint256"
        }
      ],
      "stateMutability": "view",
      "type": "function"
    },
    {
      "inputs": [],
      "name": "increment",
      "outputs": [],
      "stateMutability": "nonpayable",
      "type": "function"
    }
  ],
  "bytecode": "0x6080604052348015600f57600080fd5b5061022a8061001f6000396000f3fe608060405234801561001057600080fd5b50600436106100415760003560e01c80632baeceb714610046578063a87d942c14610050578063d09de08a1461006e575b600080fd5b61004e610078565b005b6100586100cc565b6040516100659190610142565b60405180910390f35b6100766100d5565b005b600160008082825461008a919061018c565b925050819055507f1a00a27c962d5410357331e1a8cffff62058bd0161ad624818df31152f1eeb456000546040516100c29190610142565b60405180910390a1565b60008054905090565b60016000808282546100e791906101c0565b925050819055507f3cf8b50771c17d723f2cb711ca7dadde485b222e13c84ba0730a14093fad6d5c60005460405161011f9190610142565b60405180910390a1565b6000819050919050565b61013c81610129565b82525050565b60006020820190506101576000830184610133565b92915050565b7f4e487b7100000000000000000000000000000000000000000000000000000000600052601160045260246000fd5b600061019782610129565b91506101a283610129565b92508282039050818111156101ba576101b961015d565b5b92915050565b60006101cb82610129565b91506101d683610129565b92508282019050808211156101ee576101ed61015d565b5b9291505056fea2646970667358221220e07b852ce9a6197870260206356626ddf8ef6c65458b8492b281158bb1ca587d64736f6c634300081c0033",
  "linkReferences": {},
  "deployedLinkReferences": {}
}