{
    "_format": "hh-sol-artifact-1",
    "contractName": "SomeContract",
    "sourceName": "contracts/SomeContract.sol",
    "abi": [
        {
            "anonymous": false,
            "inputs": [
                {
                    "indexed": false,
                    "internalType": "uint64[]",
                    "name": "dynamicArray",
                    "type": "uint64[]"
                }
            ],
            "name": "EventWithDynamicArray",
            "type": "event"
        },
        {
            "anonymous": false,
            "inputs": [
                {
                    "indexed": false,
                    "internalType": "uint64[3]",
                    "name": "uint64Array",
                    "type": "uint64[3]"
                }
            ],
            "name": "EventWithFixedArray",
            "type": "event"
        },
        {
            "anonymous": false,
            "inputs": [
                {
                    "components": [
                        {
                            "internalType": "uint64[3]",
                            "name": "uint64Array",
                            "type": "uint64[3]"
                        },
                        {
                            "internalType": "uint64[]",
                            "name": "dynamicArray",
                            "type": "uint64[]"
                        }
                    ],
                    "indexed": false,
                    "internalType": "struct SomeContract.StructWithArrays",
                    "name": "theStruct",
                    "type": "tuple"
                }
            ],
            "name": "EventWithStructWithArrays",
            "type": "event"
        },
        {
            "anonymous": false,
            "inputs": [
                {
                    "components": [
                        {
                            "components": [
                                {
                                    "internalType": "uint256",
                                    "name": "a",
                                    "type": "uint256"
                                },
                                {
                                    "internalType": "uint256",
                                    "name": "b",
                                    "type": "uint256"
                                }
                            ],
                            "internalType": "struct SomeContract.SimpleStruct[]",
                            "name": "dynamicStructArray",
                            "type": "tuple[]"
                        }
                    ],
                    "indexed": false,
                    "internalType": "struct SomeContract.StructWithDynamicStructArray",
                    "name": "theStruct",
                    "type": "tuple"
                }
            ],
            "name": "EventWithStructWithDynamicStructArray",
            "type": "event"
        },
        {
            "anonymous": false,
            "inputs": [
                {
                    "components": [
                        {
                            "components": [
                                {
                                    "internalType": "uint256",
                                    "name": "a",
                                    "type": "uint256"
                                },
                                {
                                    "internalType": "uint256",
                                    "name": "b",
                                    "type": "uint256"
                                }
                            ],
                            "internalType": "struct SomeContract.SimpleStruct[2]",
                            "name": "structArray",
                            "type": "tuple[2]"
                        }
                    ],
                    "indexed": false,
                    "internalType": "struct SomeContract.StructWithFixedStructArray",
                    "name": "theStruct",
                    "type": "tuple"
                }
            ],
            "name": "EventWithStructWithFixedStructArray",
            "type": "event"
        },
        {
            "anonymous": false,
            "inputs": [
                {
                    "components": [
                        {
                            "components": [
                                {
                                    "internalType": "uint256",
                                    "name": "a",
                                    "type": "uint256"
                                },
                                {
                                    "internalType": "uint256",
                                    "name": "b",
                                    "type": "uint256"
                                }
                            ],
                            "internalType": "struct SomeContract.SimpleStruct",
                            "name": "simpleStruct",
                            "type": "tuple"
                        }
                    ],
                    "indexed": false,
                    "internalType": "struct SomeContract.StructWithNestedStruct",
                    "name": "theStruct",
                    "type": "tuple"
                }
            ],
            "name": "EventWithStructWithNestedStruct",
            "type": "event"
        },
        {
            "anonymous": false,
            "inputs": [
                {
                    "indexed": false,
                    "internalType": "uint64",
                    "name": "num64Value",
                    "type": "uint64"
                },
                {
                    "indexed": false,
                    "internalType": "bool",
                    "name": "boolValue",
                    "type": "bool"
                },
                {
                    "indexed": false,
                    "internalType": "string",
                    "name": "stringValue",
                    "type": "string"
                },
                {
                    "indexed": false,
                    "internalType": "address",
                    "name": "addrValue",
                    "type": "address"
                },
                {
                    "indexed": false,
                    "internalType": "bytes1",
                    "name": "bytes1Value",
                    "type": "bytes1"
                },
                {
                    "indexed": false,
                    "internalType": "bytes32",
                    "name": "bytes32Value",
                    "type": "bytes32"
                },
                {
                    "indexed": false,
                    "internalType": "int256",
                    "name": "int256Value",
                    "type": "int256"
                },
                {
                    "indexed": false,
                    "internalType": "int64",
                    "name": "int64Value",
                    "type": "int64"
                },
                {
                    "indexed": false,
                    "internalType": "enum SomeContract.SomeEnum",
                    "name": "someEnum",
                    "type": "uint8"
                }
            ],
            "name": "SimpleEvent",
            "type": "event"
        },
        {
            "inputs": [
                {
                    "internalType": "uint64[]",
                    "name": "dynamicUintArray",
                    "type": "uint64[]"
                }
            ],
            "name": "emitEventWithDynamicArray",
            "outputs": [],
            "stateMutability": "nonpayable",
            "type": "function"
        },
        {
            "inputs": [],
            "name": "emitEventWithFixedArray",
            "outputs": [],
            "stateMutability": "nonpayable",
            "type": "function"
        },
        {
            "inputs": [
                {
                    "internalType": "uint64[]",
                    "name": "dynamicUintArray",
                    "type": "uint64[]"
                }
            ],
            "name": "emitEventWithStructWithArrays",
            "outputs": [],
            "stateMutability": "nonpayable",
            "type": "function"
        },
        {
            "inputs": [
                {
                    "components": [
                        {
                            "internalType": "uint256",
                            "name": "a",
                            "type": "uint256"
                        },
                        {
                            "internalType": "uint256",
                            "name": "b",
                            "type": "uint256"
                        }
                    ],
                    "internalType": "struct SomeContract.SimpleStruct[]",
                    "name": "fixedStructArray",
                    "type": "tuple[]"
                }
            ],
            "name": "emitEventWithStructWithDynamicStructArray",
            "outputs": [],
            "stateMutability": "nonpayable",
            "type": "function"
        },
        {
            "inputs": [],
            "name": "emitEventWithStructWithFixedStructArray",
            "outputs": [],
            "stateMutability": "nonpayable",
            "type": "function"
        },
        {
            "inputs": [],
            "name": "emitEventWithStructWithNestedStruct",
            "outputs": [],
            "stateMutability": "nonpayable",
            "type": "function"
        },
        {
            "inputs": [],
            "name": "emitSimpleEvent",
            "outputs": [],
            "stateMutability": "nonpayable",
            "type": "function"
        }
    ],
    "bytecode": "0x608060405260008060006101000a81548160ff021916908360ff16021790555034801561002b57600080fd5b50610fef8061003b6000396000f3fe608060405234801561001057600080fd5b506004361061007d5760003560e01c8063cd3c0b971161005b578063cd3c0b97146100c4578063d5445fe7146100ce578063e32d4e5f146100d8578063e8354e10146100f45761007d565b80636835815a146100825780638003bf9a1461008c5780638f17a1f0146100a8575b600080fd5b61008a6100fe565b005b6100a660048036038101906100a191906105f6565b61015b565b005b6100c260048036038101906100bd9190610637565b6101a3565b005b6100cc6101dd565b005b6100d6610282565b005b6100f260048036038101906100ed9190610637565b61030f565b005b6100fc6103bc565b005b7f451595ae5d9bc1ed1d100f3d3652a29e8a4439fe8a72fd09df7dfe2e7be4c757604051806020016040528060405180604001604052806001815260200160028152508152506040516101519190610aea565b60405180910390a1565b7f4463ddcee541b8aefd0d1a9cc0ca68a479122ad058ab12f8f8f968a50a5be63d6040518060200160405280838152506040516101989190610aad565b60405180910390a150565b7f94652ae00d7bcd3fdec1fd4cf6856314aae9c788204f2ba36961f834636e7164816040516101d29190610a69565b60405180910390a150565b7f436b3f64034b6ce9212b8bda025b9bc53aa75fed84ca1dc7ce4d42a0bd30eaae60008054906101000a900460ff1660016102189190610d0d565b6001610123600460f81b600560001b600660076002604051610241989796959493929190610b05565b60405180910390a160008081819054906101000a900460ff168092919061026790610e86565b91906101000a81548160ff021916908360ff16021790555050565b6000604051806040016040528060405180604001604052806001815260200160028152508152602001604051806040016040528060038152602001600481525081525090507fa6b6007e85e3daa5ec6e0aad833575b0c3ac7757e3605e4128264fd1d7055b056040518060200160405280838152506040516103049190610acf565b60405180910390a150565b60006040518060600160405280600167ffffffffffffffff1667ffffffffffffffff168152602001600267ffffffffffffffff1667ffffffffffffffff168152602001600367ffffffffffffffff1667ffffffffffffffff1681525090507f7f73be6934588dbadb6c8ba38d972cca0cd07369007d96e5ddb7972c2a7305f96040518060400160405280838152602001848152506040516103b09190610a8b565b60405180910390a15050565b60006040518060600160405280600167ffffffffffffffff1667ffffffffffffffff168152602001600267ffffffffffffffff1667ffffffffffffffff168152602001600367ffffffffffffffff1667ffffffffffffffff1681525090507fc4e4fd6e63300e47441d82e2a5146cd8390afb7f49b0a48497f342374d46f0fe816040516104499190610a4e565b60405180910390a150565b600061046761046284610bbc565b610b97565b9050808382526020820190508285604086028201111561048657600080fd5b60005b858110156104b6578161049c8882610580565b845260208401935060408301925050600181019050610489565b5050509392505050565b60006104d36104ce84610be8565b610b97565b905080838252602082019050828560208602820111156104f257600080fd5b60005b85811015610522578161050888826105e1565b8452602084019350602083019250506001810190506104f5565b5050509392505050565b600082601f83011261053d57600080fd5b813561054d848260208601610454565b91505092915050565b600082601f83011261056757600080fd5b81356105778482602086016104c0565b91505092915050565b60006040828403121561059257600080fd5b61059c6040610b97565b905060006105ac848285016105cc565b60008301525060206105c0848285016105cc565b60208301525092915050565b6000813590506105db81610f8b565b92915050565b6000813590506105f081610fa2565b92915050565b60006020828403121561060857600080fd5b600082013567ffffffffffffffff81111561062257600080fd5b61062e8482850161052c565b91505092915050565b60006020828403121561064957600080fd5b600082013567ffffffffffffffff81111561066357600080fd5b61066f84828501610556565b91505092915050565b60006106848383610953565b60408301905092915050565b600061069c8383610a30565b60208301905092915050565b6106b181610d44565b82525050565b6106c081610c48565b6106ca8184610ca8565b92506106d582610c14565b8060005b838110156107065781516106ed8782610678565b96506106f883610c74565b9250506001810190506106d9565b505050505050565b600061071982610c53565b6107238185610cb3565b935061072e83610c1e565b8060005b8381101561075f5781516107468882610678565b975061075183610c81565b925050600181019050610732565b5085935050505092915050565b61077581610c5e565b61077f8184610cc4565b925061078a82610c2e565b8060005b838110156107bb5781516107a28782610690565b96506107ad83610c8e565b92505060018101905061078e565b505050505050565b6107cc81610c5e565b6107d68184610ccf565b92506107e182610c2e565b8060005b838110156108125781516107f98782610690565b965061080483610c8e565b9250506001810190506107e5565b505050505050565b600061082582610c69565b61082f8185610cda565b935061083a83610c38565b8060005b8381101561086b5781516108528882610690565b975061085d83610c9b565b92505060018101905061083e565b5085935050505092915050565b600061088382610c69565b61088d8185610ceb565b935061089883610c38565b8060005b838110156108c95781516108b08882610690565b97506108bb83610c9b565b92505060018101905061089c565b5085935050505092915050565b6108df81610d56565b82525050565b6108ee81610d62565b82525050565b6108fd81610d8e565b82525050565b61090c81610e0d565b82525050565b61091b81610e1f565b82525050565b61092a81610e31565b82525050565b600061093d600183610cfc565b915061094882610f4e565b602082019050919050565b6040820160008201516109696000850182610a21565b50602082015161097c6020850182610a21565b50505050565b600060808301600083015161099a600086018261076c565b50602083015184820360608601526109b2828261081a565b9150508091505092915050565b600060208301600083015184820360008601526109dc828261070e565b9150508091505092915050565b6080820160008201516109ff60008501826106b7565b50505050565b604082016000820151610a1b6000850182610953565b50505050565b610a2a81610de2565b82525050565b610a3981610dec565b82525050565b610a4881610e43565b82525050565b6000606082019050610a6360008301846107c3565b92915050565b60006020820190508181036000830152610a838184610878565b905092915050565b60006020820190508181036000830152610aa58184610982565b905092915050565b60006020820190508181036000830152610ac781846109bf565b905092915050565b6000608082019050610ae460008301846109e9565b92915050565b6000604082019050610aff6000830184610a05565b92915050565b600061012082019050610b1b600083018b610a3f565b610b28602083018a6108d6565b8181036040830152610b3981610930565b9050610b4860608301896106a8565b610b5560808301886108e5565b610b6260a08301876108f4565b610b6f60c0830186610912565b610b7c60e0830185610921565b610b8a610100830184610903565b9998505050505050505050565b6000610ba1610bb2565b9050610bad8282610e55565b919050565b6000604051905090565b600067ffffffffffffffff821115610bd757610bd6610f0e565b5b602082029050602081019050919050565b600067ffffffffffffffff821115610c0357610c02610f0e565b5b602082029050602081019050919050565b6000819050919050565b6000819050602082019050919050565b6000819050919050565b6000819050602082019050919050565b600060029050919050565b600081519050919050565b600060039050919050565b600081519050919050565b6000602082019050919050565b6000602082019050919050565b6000602082019050919050565b6000602082019050919050565b600081905092915050565b600082825260208201905092915050565b600081905092915050565b600081905092915050565b600082825260208201905092915050565b600082825260208201905092915050565b600082825260208201905092915050565b6000610d1882610e00565b9150610d2383610e00565b92508260ff03821115610d3957610d38610eb0565b5b828201905092915050565b6000610d4f82610dc2565b9050919050565b60008115159050919050565b60007fff0000000000000000000000000000000000000000000000000000000000000082169050919050565b6000819050919050565b6000819050610da682610f77565b919050565b6000819050919050565b60008160070b9050919050565b600073ffffffffffffffffffffffffffffffffffffffff82169050919050565b6000819050919050565b600067ffffffffffffffff82169050919050565b600060ff82169050919050565b6000610e1882610d98565b9050919050565b6000610e2a82610dab565b9050919050565b6000610e3c82610db5565b9050919050565b6000610e4e82610e00565b9050919050565b610e5e82610f3d565b810181811067ffffffffffffffff82111715610e7d57610e7c610f0e565b5b80604052505050565b6000610e9182610e00565b915060ff821415610ea557610ea4610eb0565b5b600182019050919050565b7f4e487b7100000000000000000000000000000000000000000000000000000000600052601160045260246000fd5b7f4e487b7100000000000000000000000000000000000000000000000000000000600052602160045260246000fd5b7f4e487b7100000000000000000000000000000000000000000000000000000000600052604160045260246000fd5b6000601f19601f8301169050919050565b7f3300000000000000000000000000000000000000000000000000000000000000600082015250565b60038110610f8857610f87610edf565b5b50565b610f9481610de2565b8114610f9f57600080fd5b50565b610fab81610dec565b8114610fb657600080fd5b5056fea2646970667358221220cfb0c857d8d1e21eeff13eb92c6503a0e91407f123c76b04d370e82b00259d4764736f6c63430008040033",
    "linkReferences": {},
    "deployedLinkReferences": {}
}